:020000023000CC
:10E0000071C0000090C000008EC000008CC00000F5
:10E010008AC0000088C0000086C0000084C00000E4
:10E0200082C0000080C000007EC000007CC00000F4
:10E030007AC0000078C0000076C0000074C0000004
:10E0400072C0000070C000006EC000006CC0000014
:10E050006AC0000068C0000066C0000064C0000024
:10E0600062C0000060C000005EC000005CC0000034
:10E070005AC0000058C0000056C0000054C0000044
:10E0800052C0000050C000004EC000004CC0000054
:10E090004AC0000048C0000046C0000044C0000064
:10E0A00042C0000040C000003EC000003CC0000074
:10E0B0003AC0000038C0000036C0000034C0000084
:10E0C00032C0000030C000002EC000002CC0000094
:10E0D0002AC0000028C0000026C0000024C00000A4
:10E0E00022C0000011241FBECFEFD1E2DEBFCDBFA2
:10E0F00001E00CBF13E0A0E0B2E0E2E0FEEF03E0DD
:10E100000BBF02C007900D92A43DB107D9F726E0DE
:10E11000A4EDB3E001C01D92AD30B207E1F70F945A
:10E12000C1FB0D94FFFE6CCF8FEF87B980E2809327
:10E130000A0180930B0189EF80930701E8E0F1E089
:10E1400089E7808381E780838FE39FE10197F1F77F
:10E1500000C0000089E780930801089588B989E527
:10E1600099E7411551056105710549F08093080152
:10E17000415051096109710990930801F2CF089546
:10E18000E8E0F1E029E1208318B899E39083208347
:10E1900088B9908389E780830895CF93DF93C62F52
:10E1A000D42FEEDF41E050E060E070E08D2FD6DF4D
:10E1B00041E050E060E070E08C2FDF91CF91CECF56
:10E1C000472FEBCF8F929F92AF92BF92EF920F9318
:10E1D000CF93DF93EB0149015A016FE371E0681BB4
:10E1E000790B81E2EDDF6FEE70E06C1B7D0B80E25E
:10E1F000E7DF40E1602F83E0D0DF82E2C1DFB501DD
:10E20000A4018E2DDF91CF910F91EF90BF90AF9031
:10E210009F908F90A3CF9F92AF92BF92CF92DF92A9
:10E22000EF92FF920F931F93CF93DF936C01677070
:10E23000643059F0633081F080E6689FE00111247A
:10E24000C25EDD4F8BE698E104C08BE6C0E0D0E013
:10E2500090E030E2F32E06C084E1CAE0D4E090E41E
:10E2600020E4F22E682F70E010E0992E980E96169A
:10E27000F1F05B018FEFA81AB80AE12C08E020E06A
:10E2800030E0A901C6019EDF0F2D802F877011F4A9
:10E2900018812196812F817042E050E060E070E0AB
:10E2A00081955CDF1695015081F7B501E0CFDF91D4
:10E2B000CF911F910F91FF90EF90DF90CF90BF9083
:10E2C000AF909F900895EF920F931F93CF93DF939A
:10E2D000182F80910002181710F410920002CDE65A
:10E2E000D0E0E0910002E117D0F4EF5FE09300028C
:10E2F0008091D40387FF04C0CE018E1B9109FC01DD
:10E30000EE0F8E2F90E0E090D50300E028E330E0A0
:10E3100040E050E06AE670E0C39654DFE2CFDF9160
:10E32000CF911F910F91EF900895CF92DF92EF92CE
:10E330000F931F93CF93DF93182F6B018091D4031A
:10E3400081114CC02FE788E391E02150804090403C
:10E35000E1F700C00000CEE3D3E04A816981888103
:10E360001CDF239623E0CF3BD207B9F7E12C08E06E
:10E3700020E038E542E050E060E070E080E090E0CE
:10E3800021DFC114D10409F49FC0EE24EA9426EBE6
:10E3900031E040E050E068E670E083E390E012DFB7
:10E3A00026EB31E040E050E067E870E083E390E086
:10E3B00009DF00E020E430E040E050E068E670E093
:10E3C00083E390E0FFDE20E430E040E050E068E6E8
:10E3D00070E08DE091E0F6DE106403C0103209F4C5
:10E3E00066C08091D403811709F448C01093D40308
:10E3F00016FF30C040E06AE172E0C601BFD3882357
:10E4000019F080E090D222C0109206041092070406
:10E41000109208041092090440E052E06FEF70E09F
:10E420008AE094E00F94D1FEE2E2F4E080E297E02B
:10E430009193805E95E0EA3EF90741F08032B9F3AE
:10E44000811102C090EEF4CF90E0F2CF63E080E85B
:10E4500090E0E1DE612F70E043E0759567954A95A5
:10E46000E1F781E191E0D7DE612F8EE090E0D3DE2D
:10E47000109200021092D5038CE618C012FD04C061
:10E48000127121F08FED03C080EE01C087EC9091F6
:10E4900000029C3640F0109200029091D503911139
:10E4A00080E08093D503809100028C5F0CDFCD2843
:10E4B00059F4E12C08E028E33FE440E050E068E64E
:10E4C00070E083E390E07EDEDF91CF911F910F91AA
:10E4D000EF90DF90CF900895CF92DF92EF92FF926E
:10E4E0000F9369017A010093D503ACE6B0E09B017C
:10E4F000AC010F94A2FE2CE6C20ED11CE11CF11C53
:10E50000A70196010F9480FE822F0F91FF90EF904C
:10E51000DF90CF90D8CE8FEF8EBD0DB407FEFDCF2C
:10E520008EB508951F93CF93DF9300D000D0CDB761
:10E53000DEB780648E834A835B836C837D8329830B
:10E54000FE013796CE01019622912EBD0DB407FE35
:10E55000FDCFE817F907C1F710E0DDDF87FF02C044
:10E560001150D9F726960FB6F894DEBF0FBECDBF77
:10E57000DF91CF911F910895CF93C82FCCDF8C13DB
:10E58000FDCF81E0CF910895CF92DF92EF92FF927D
:10E59000CF936B017C011092050460930604709385
:10E5A000070480930804909309048091E80388236A
:10E5B00009F450C0CEEFC114D104E104F10409F410
:10E5C00049C0B701A60100900A0604C0440F551FB8
:10E5D000661F771F0A94D2F72FEF88E1A3DF81111E
:10E5E00037C0CEBD0DB407FEFDCFEAE0F4E0819167
:10E5F0008EBD0DB407FEFDCF86E0EA30F807B9F70F
:10E600008ADF89DF88DF8F71853011F58FEFB4DF06
:10E610008823F1F02FEF40E050E0BA018DE082DF77
:10E62000811116C078DF811113C080910404882302
:10E6300089F0109204048091EC039091ED03A09175
:10E64000EE03B091EF03C80ED91EEA1EFB1EB3CF36
:10E650001092E803CF91FF90EF90DF90CF90089554
:10E660006091060470910704809108049091090458
:10E67000611571058105910509F086CF08950F9305
:10E680001F93CF93DF9300D01F92CDB7DEB70091D9
:10E69000060410910704209108043091090406171C
:10E6A000170728073907B9F020910504222349F0FC
:10E6B00069837A838B839C83D3DF9C818B817A816E
:10E6C0006981609306047093070480930804909313
:10E6D000090481E001C080E00F900F900F900F902F
:10E6E000DF91CF911F910F910895CF92DF92EF921A
:10E6F000FF926B017C01C3DF882321F1B701A601E2
:10E7000000900A0604C0440F551F661F771F0A9425
:10E71000D2F72FEF81E106DF811112C08EEF2CDFDF
:10E72000882371F0EAE0F4E09FEF9EBD0DB407FE90
:10E73000FDCF86E0EA30F80729F08EB58193F5CF5A
:10E740001092E803FF90EF90DF90CF9008956091D2
:10E75000DA037091DB038091DC039091DD03C5DF68
:10E760008091DE0320E2829FC0011124865F9B4FCF
:10E7700008950F931F930091F0031091F1032091DE
:10E78000F2033091F303061717072807390710F42F
:10E790001092E8032091EA03295F04C096958795BB
:10E7A000779567952A95D2F700910004109101049E
:10E7B0002091020430910304600F711F821F931F88
:10E7C00094DF8091E903809304041F910F910895D1
:10E7D000CF92DF92EF92FF92CF93DF936B017C0198
:10E7E000EA018091E8038823E9F18091EA03882314
:10E7F00029F088EF9FEFA0E0B0E004C088EF9FEF22
:10E80000AFEFBFE0C816D906EA06FB0658F5C70108
:10E81000B601AFDF8091EA03882369F0DD24EE249E
:10E82000FF24F601EE0FFF1FE65FFB4F8081918111
:10E83000A0E0B0E011C0E894C7F8DD24EE24FF2486
:10E84000F601EE0FFF1FEE0FFF1FE65FFB4F80810B
:10E850009181A281B381BF7088839983AA83BB838E
:10E8600081E001C080E0DF91CF91FF90EF90DF90D9
:10E87000CF900895CF92DF92EF92FF92CF93DF93E4
:10E8800000D01F92CDB7DEB76B017C0182E0C816C5
:10E89000D104E104F10468F1C701B60129833A8388
:10E8A0004B835C8366DF8091EA0329813A814B8147
:10E8B0005C81882359F0DD24EE24FF24F601EE0F5D
:10E8C000FF1FE65FFB4F3183208310C0E894C7F839
:10E8D000DD24EE24FF24F601EE0FFF1FEE0FFF1FD5
:10E8E000E65FFB4F208331834283538381E0809333
:10E8F00005040F900F900F900F90DF91CF91FF9034
:10E90000EF90DF90CF90089522DF4091D603509191
:10E91000D7036091D8037091D903FC01448F558FC0
:10E92000668F778F9DCE7F928F929F92AF92BF928C
:10E93000CF92DF92EF92FF920F931F93CF93DF93CB
:10E9400000D01F92CDB7DEB7782E4091DF035091F3
:10E95000E0036091E1037091E2038A0111708090FD
:10E96000EB03912C81E0881A9108AA2497FCA094CB
:10E97000BA2CDB01CA01F9E0B695A7959795879562
:10E98000FA95D1F788229922AA22BB228091E70327
:10E99000882349F06091F4037091F5038091F603A8
:10E9A0009091F7039BC00115110509F07AC08114FD
:10E9B0009104A104B10409F074C03091E3032091E3
:10E9C000E4038091E5039091E603772009F460C0A9
:10E9D000C32ED22E7C01EFEFCE1ADE0AEE0AFE0A1B
:10E9E0008091E3039091E403A091E503B091E603E5
:10E9F000C816D906EA06FB0619F41092E80377C098
:10EA00008091F0039091F103A091F203B091F30390
:10EA10008C159D05AE05BF0528F4E2E0CE2ED12C65
:10EA2000E12CF12CAE014F5F5F4FC701B601D0DE84
:10EA300089819A81AB81BC81892B8A2B8B2B59F6DA
:10EA40002FEF3FEF4FEF5FE0C701B60113DF60919B
:10EA5000E3037091E4038091E5039091E60361156F
:10EA600071058105910541F472DEFC01D38EC28EE1
:10EA7000F58AE48AF5DD03C0A7019601FBDEC092AA
:10EA8000E303D092E403E092E503F092E60309C0C9
:10EA9000452B462B472B29F043EE53E0632F722F73
:10EAA00097DEA091EB032091E3033091E4034091C2
:10EAB000E5035091E6032250310941095109B0E0C4
:10EAC0000F94A2FEC090FC03D090FD03E090FE03E3
:10EAD000F090FF036C0D7D1D8E1D9F1D680D791D2F
:10EAE0008A1D9B1D772011F0CADD01C0FEDDC80123
:10EAF000865F9B4F0F900F900F900F90DF91CF91FB
:10EB00001F910F91FF90EF90DF90CF90BF90AF904B
:10EB10009F908F907F9008950F931F938C0180E0BA
:10EB200002DF20E030E04091DF035091E00360918C
:10EB3000E1037091E203400F511F621F731F409366
:10EB4000DF035093E0036093E1037093E20340918D
:10EB5000D6035091D7036091D8037091D903401B1D
:10EB6000510B620B730B4093D6035093D703609302
:10EB7000D8037093D9031F910F9108954F925F921C
:10EB80006F927F928F929F92AF92BF92CF92DF92BD
:10EB9000EF92FF920F931F93CF93DF93CDB7DEB722
:10EBA00060970FB6F894DEBF0FBECDBF142F28E0DC
:10EBB000FC01DE01119601900D922A95E1F7FB010F
:10EBC00080819181A28189879A87AB878091E803B0
:10EBD000811184C184B1807F876084B985B1807FD1
:10EBE000816085B9249A2C9A83E58CBD8DB58C7F84
:10EBF0008DBD0AE090DC0150E9F72C98A12CB12CD6
:10EC000025E940E050E0BA0180E08CDC813049F039
:10EC1000FFEFAF1ABF0A21E2A216B10489F780E024
:10EC200095C227E84AEA51E060E070E088E07ADCCB
:10EC300082FF07C089E080930A06C12CD12C76019F
:10EC40000DC069DC68DC67DC66DC8A3A41F710924B
:10EC50000A06C12CD12CE12CB0E4FB2E2FEF40E0B2
:10EC600050E0BA0187E35EDC2FEFB701A60189E22D
:10EC700059DC882331F0C5010196A7FCD0CF5C0197
:10EC8000EDCF80910A06811112C02FEF40E050E0D5
:10EC9000BA018AE347DC8111C2CF3DDC807C803C35
:10ECA00019F089E080930A0636DC35DC34DC8DB55A
:10ECB0008E7F8DBD8CB58C7F8CBD8CB58CBD01E0FD
:10ECC00088248A94982C5401809206049092070418
:10ECD000A0920804B092090460E070E0CB0105DD69
:10ECE000002311F180E1089FF0011124E854FA4F4C
:10ECF00080818F7709F0EEC084859585A685B785DC
:10ED000084369105A105B10508F4E4C0C084D1841E
:10ED1000E284F384C114D104E104F10409F4DAC0FB
:10ED2000C701B601E2DC03C0C12CD12C7601809171
:10ED30001504909116048115924009F0CBC0A09162
:10ED40001A04AA2309F4C6C08091180490911904EA
:10ED5000009709F4BFC0E0911704EE2309F4BAC08C
:10ED600021E0A23008F420E02093E903E093EB03D4
:10ED700020912004309121042115310519F040E043
:10ED800050E008C020912E0430912F0440913004AF
:10ED9000509131042093EC033093ED034093EE0344
:10EDA0005093EF0326013701480E591E611C711C58
:10EDB0004092000450920104609202047092030495
:10EDC000B0E0C0D7640D751D861D971D6093F403D8
:10EDD0007093F5038093F6039093F70340901D041E
:10EDE00050901E044114510419F0612C712C08C07C
:10EDF00040902A0450902B0460902C0470902D04B5
:10EE000020911B0430911C04B5E0220F331FBA95EA
:10EE1000E1F740E050E02093F8033093F90340938A
:10EE2000FA035093FB0321503E4F4F4F5F4FF9E0E1
:10EE30005695479537952795FA95D1F7260F371FA1
:10EE4000481F591F2093FC033093FD034093FE039A
:10EE50005093FF03C701B601621B730B840B950B24
:10EE6000640D751D861D971D2E2F30E040E050E08B
:10EE700047D72F5F3F4F4F4F5F4F2093F0033093A3
:10EE8000F1034093F2035093F303263FFFE03F0763
:10EE900041055105F8F081E0263F3F4F41055105FE
:10EEA00008F080E08093EA03811110C0809136045D
:10EEB00090913704A0913804B09139048093F40301
:10EEC0009093F503A093F603B093F70381E080934A
:10EED000E80304C0015008F0F7CEA1CE8AE0E1E0DB
:10EEE000F0E0EC0FFD1FE80FF11D9081905290367D
:10EEF00008F095CE815098F71092DF031092E0034E
:10EF00001092E1031092E2038091EA038093E703F9
:10EF10008091F4039091F503A091F603B091F7036B
:10EF20008093E3039093E403A093E503B093E60397
:10EF300020E00FE00F5F0F7080E290E0288BECDDA7
:10EF40005C014BE050E0BC01CE01019614D728894A
:10EF5000892B29F4F5018385887131E009F030E0CF
:10EF6000F5014081311106C0442311F0453EB9F44A
:10EF7000211112C08091060490910704A091080409
:10EF8000B09109048093DA039093DB03A093DC0330
:10EF9000B093DD030093DE0321E0442339F0809138
:10EFA000E803882319F0332329F266C0311164C0C5
:10EFB00010FF35CE222301F1CADB5C0180E2F501AE
:10EFC00011928A95E9F78BE0FE013196D501019007
:10EFD0000D928A95E1F781E298E2F501918B808BA1
:10EFE000938B828B918F808F80E098E097878687C4
:10EFF000978B868B35DB42C08091EA0381110FCE5F
:10F000001092DF031092E0031092E1031092E203EA
:10F0100081E089DC8091060490910704A0910804A6
:10F02000B09109048093DA039093DB03A093DC038F
:10F03000B093DD031092DE03EAE0F4E0119226E0E3
:10F04000EA30F207D9F70091EB030ADB809106045E
:10F0500090910704A0910804B09109040196A11DA4
:10F06000B11D8093060490930704A0930804B09305
:10F070000904015051F7A0CF112321F0F501838538
:10F0800080FDCDCDF501C488D588E12CF12C760129
:10F09000DD24CC24828D938DA0E0B0E0C82AD92A4B
:10F0A000EA2AFB2AC092E303D092E403E092E5034C
:10F0B000F092E603848D958DA68DB78D8093D6034F
:10F0C0009093D703A093D803B093D9031092E7038A
:10F0D0001092DF031092E0031092E1031092E2031A
:10F0E000892B8A2B8B2B81F111FF2EC0AE01445F3F
:10F0F0005F4FC701B6016CDB882359F020E030E098
:10F10000A901C701B601B6DBCC84DD84EE84FF849F
:10F11000EDCF1092E3031092E4031092E5031092F6
:10F12000E6031092D6031092D7031092D8031092E0
:10F13000D9030DDBFC01148E158E168E178E138EDF
:10F14000128E158A148A8CDA8091E80360960FB6C5
:10F15000F894DEBF0FBECDBFDF91CF911F910F910D
:10F16000FF90EF90DF90CF90BF90AF909F908F90E7
:10F170007F906F905F904F90089581E090E0CCDC9D
:10F18000FC0180810895CF93C82F81E0CCDBFC0186
:10F19000C08381E0809305048091D6039091D703CA
:10F1A000A091D803B091D9030196A11DB11D809300
:10F1B000D6039093D703A093D803B093D903809339
:10F1C000DF039093E003A093E103B093E203CF91B8
:10F1D00008950F931F93CF93DF93EC0100E010E0AD
:10F1E0004091D6035091D7036091D8037091D90311
:10F1F000452B462B472BE9F0C0DF002399F08033E5
:10F20000C0F0212F217010FF188298819295907F75
:10F2100086FD87508F70890F88831F5F222339F006
:10F22000219605C001E08A33D9F200E0D9CF01E090
:10F23000D7CF812FDF91CF911F910F910895EF923A
:10F24000FF920F931F93CF93DF93EC016883398371
:10F250002A830B8324E0F22EF60EFF0C8AE393DF61
:10F2600000E010E0FF2029F0E8800E0D111D21962E
:10F2700002C0E02EE1948E2D82958F70E29490EF83
:10F28000E9228A3008F0895F805D7DDFFA94F0FC26
:10F29000F2CF8EEFF812E6CF8DE075DF8AE0DF91D6
:10F2A000CF911F910F91FF90EF906DCFFF920F9331
:10F2B0001F93CF93DF93611520EC720723E0820741
:10F2C000910508F033C0611131C023E0FB01809348
:10F2D0005B0020935700E89507B600FCFDCFDA01EC
:10F2E000B3958B019C01FF24F394FA01C191D19154
:10F2F000AF010E01F80120935B00F0925700E895F2
:10F3000011240E5F1F4F2F4F3F4F4A175B0769F7BE
:10F3100025E0FB0180935B0020935700E89507B63A
:10F3200000FCFDCF81E180935700E895DF91CF91FC
:10F330001F910F91FF900895FC01208D27FF07C0BA
:10F340002F77208F49E150E067EE7FE041C50895B7
:10F350002F923F924F925F926F927F928F929F92E5
:10F36000AF92BF92CF92DF92EF92FF920F931F93D3
:10F37000CF93DF93CDB7DEB7C650D4400FB6F89425
:10F38000DEBF0FBECDBF5C01DC0158961C915897C3
:10F39000812F8C7F806858968C9380E090E0F501F7
:10F3A000E80FF91F2485348134872483019688303F
:10F3B0009105A9F77501BCE0EB0EF11CB7018AE4D9
:10F3C0000F9495F111FD07C040E06FEB73E0C701AA
:10F3D000D5DB811127C0412C512C32018FEF9FEFDB
:10F3E0009A838983AE014F5F5F4FC301B2015EDF35
:10F3F000CA5FDB4F0FB6F894DEBF0FBECDBFDF9103
:10F40000CF911F910F91FF90EF90DF90CF90BF9021
:10F41000AF909F908F907F906F905F904F903F90B4
:10F420002F90089580E07FDA4C01FC010C96219129
:10F430002053273120F4E817F907C9F702C0812CBF
:10F44000912C2091D6033091D7034091D80350914D
:10F45000D903CF5FDB4F288339834A835B83C15055
:10F46000D440E12CF12C412C512C32016E013FEFA4
:10F47000C31A3DEFD30AA6014C5F5F4FCB5FDB4F52
:10F4800059834883C550D4406091DF037091E003F5
:10F490008091E1039091E203CF5FDB4F28813981B6
:10F4A0004A815B81C150D440621773078407950776
:10F4B00008F094CF0EE9CF5FDB4F288139814A8174
:10F4C0005B81C150D44008D881149104C9F480E014
:10F4D00091E022DBAC01C301B201E8DE5FEF551A17
:10F4E000650A750ACF5FDB4F88819981AA81BB814C
:10F4F000C150D440F501848B958BA68BB78BC4CFBC
:10F50000C60167DED6012C9013961C91312CF601B2
:10F51000E20DF31D648170E0F60180E090E0A1014E
:10F520004D5F5F4F9F012C193D094217530724F08F
:10F530002191820F911DF6CF91958195910999277F
:10F540006817790709F04ACFE114F104B9F41111F1
:10F5500015C0D301C20188279927BB27F601418036
:10F56000512C612C712C762C652C542C4424228136
:10F57000422A482A592A6A2A7B2A16C01230A1F444
:10F5800066247724D60114968C9190E0A0E0B0E038
:10F590002CE0880F991FAA1FBB1F2A95D1F7482A74
:10F5A000592A6A2A7B2A70CFA101CB5FDB4F688181
:10F5B0007981C550D44081E090E08C0F9D1F8E0D65
:10F5C0009F1DE6D3E20CF31CBFEFEB16F10409F02C
:10F5D00018F4113009F058CFAE014F5F5F4FC301EF
:10F5E000B20164DEEFEFEE16F10439F030F0FFEF18
:10F5F0005F1A6F0A7F0AFA9406C04E0C5F1C611CEA
:10F60000711CE12CF12CA701BE016F5F7E4FCE0172
:10F610000196BED3D50154964D925D926D927C9227
:10F620005797113009F030CFD9CE4F925F926F9239
:10F630007F929F92AF92BF92CF92DF92EF92FF9212
:10F640000F931F93CF93DF93CDB7DEB764970FB6B9
:10F65000F894DEBF0FBECDBF5C01FC01808D82FF40
:10F660007AC08B7F8068808F7501FCE0EF0EF11C03
:10F67000B70181E50F9495F142E06FEB73E0C701AC
:10F680007DDA882309F465C010E0412C512C320149
:10F69000C12CD12C7601F5012489358946895789F9
:10F6A0000CEDC701B6010F946CF2EBBEF601879129
:10F6B0009691E5E0F0E0EC0FFD1FE10FF11D918365
:10F6C00080831E5FF2E0CF0ED11CE11CF11C992457
:10F6D0009394F50184899589A689B789C816D906B6
:10F6E000EA06FB0618F4912C1031A9F600E0A301FC
:10F6F0009201612FCE010196A2DD410E511C611CC9
:10F70000711CD301C201AA27BB27892B8A2B8B2B03
:10F7100099F4D301C2014CE0B695A79597958795CA
:10F720004A95D1F78D831E8202E020E030E0A901E6
:10F7300062E0CE01019683DD911002C010E0ABCFF4
:10F7400001E020E030E0A90160E0CE01019677DD24
:10F75000DBD8C501F1DD64960FB6F894DEBF0FBEAD
:10F76000CDBFDF91CF911F910F91FF90EF90DF9070
:10F77000CF90BF90AF909F907F906F905F904F9091
:10F780000895CF93DF93CDB7DEB7C657D2400FB6FB
:10F79000F894DEBF0FBECDBF94B7F894A89514BE01
:10F7A000809160008861809360001092600078947E
:10F7B00093FF05C0E0910B06F0910C061995579840
:10F7C0005F9A8091C00082608093C00080E1809346
:10F7D000C40088E18093C10049E150E067EE7FE01A
:10F7E000CE01875A9D4FE4D2E9E5F2E0EC0FFD1F10
:10F7F0003C9689E592E08C0F9D1F44962191205202
:10F800002F3558F089E1E1E0F2E0DE01A75ABD4F63
:10F8100001900D928A95E1F703C0E817F90771F797
:10F820000F9494F000E010E099E5892E92E0992E73
:10F830008C0E9D1E2CE0820E911C4F991BC088E0FF
:10F84000E5E0F2E0A9E5B2E0AC0FBD1F149601902F
:10F850000D928A95E1F7CF58DD4F8881C157D2408C
:10F860008168CF58DD4F8883C157D240CE01875A77
:10F870009D4F62DDCF58DD4F8881C157D24080FF58
:10F8800009C0CE01875A9D4FD0DECE01875A9D4FC9
:10F890005FDD66C0C12CD12C760160E020E030E055
:10F8A00040E080E090E0DC015091C00057FD79C05D
:10F8B0000196A11DB11DA4FFF7CF52C0443008F43A
:10F8C00079C0453009F488C008F497C0463049F73C
:10F8D0006111B3CF8E81873108F0B0C0833108F059
:10F8E00015C1863009F40DC108F48CC0813109F0CE
:10F8F0009EC002E010E080E2BB24B39490E02BE1D4
:10F9000029832EE02D839F83B4010F9495F11C83EE
:10F910000B838C818B830C83A6E0B0E0AC0FBD1F02
:10F92000A00FB11F1C92FE01319680818093C6000A
:10F930008C91919189278C938091C00086FFFCCF98
:10F940008091C00080648093C000015011090A3F7B
:10F950003FEF130751F700E010E0BB2009F49DCF03
:10F96000CE01875A9D4FE8DC40E050E0BA016BBF02
:10F97000FA0187919691019629F4B4018CE00F94D5
:10F9800095F15BCF60E070E084E20F9495F1809197
:10F99000C0008D7F8093C0002C9AEE27FF2709942A
:10F9A000FFCF5091C6006527433009F087CF052B64
:10F9B00044E077CF413019F45A8342E072CF4230AD
:10F9C00028F441E05B3109F06BCF6BCF052F10E0DD
:10F9D000102F002743E065CFC9010196E6E0F0E073
:10F9E000EC0FFD1FE20FF31F50838017910711F0FA
:10F9F0009C0157CF980146E054CF5E3009F01DCFEF
:10FA000045E04FCF823009F478C1833009F44DC00E
:10FA1000813009F065C18AE0E3ECF3E0DE0118967D
:10FA200001900D928A95E1F70CE010E03BC0823125
:10FA300008F056C1803109F460C152C18D31A1F086
:10FA400050F48A3109F44EC08B3109F43CC088313E
:10FA500009F046C13FC0863E09F427C108F440C101
:10FA60008A3E08F453C03CC18A85803331F4EC856A
:10FA7000F0E0E053FC4FE0810FC0982F907559F0F3
:10FA8000883511F4E3E001C0E0E0F0E099E0909304
:10FA90005700E49101C0E0E0188689871A86EB8759
:10FAA00007E010E080E2B12C29CFEF81E059E3308C
:10FAB00028F4F0E0E353FC4F808101C080E08887A8
:10FAC00003E010E0EFCFEA85F0E0E053FC4F8081E7
:10FAD000888713C08885803539F48985883031F46A
:10FAE000E2E005C0E1E003C0E3E001C0E0E0F0E0F7
:10FAF00089E080935700E491E887198604E010E0DC
:10FB0000D1CFCA84D984E884FF80F7C0A884BF809D
:10FB100080FF7FC0853109F45BC018F4833161F048
:10FB2000ECC0873E09F461C0893E09F0E6C08091CF
:10FB3000E9038093040459C0CC0CDD1CEE1CFF1CAF
:10FB4000AE01405F5F4FC701B601B0DBE0E1F0E01E
:10FB5000EC0FFD1FEA0DFB1DCF58DD4F2881C1576B
:10FB6000D24027FD02C0C50111C0C359DD4F8881B5
:10FB70009981AA81BB81CD56D240C816D906EA0622
:10FB8000FB0688F71CC00297009729F0529142911A
:10FB90004F3F5F4FC1F3B701A601480F591F611DC9
:10FBA000711DC359DD4F488359836A837B83CD56CA
:10FBB000D2402468CF58DD4F2883C157D240CA0CA9
:10FBC000DB1CE11CF11CF694E794D794C79409C0A0
:10FBD000A501B601CE014096FBD0CA0CDB1CE11C8E
:10FBE000F11C02E010E088E05ECFA501BE01605F7D
:10FBF0007F4F8AE094E0CCD0C701B6010F94C4F2E5
:10FC00005FEFC51AD50AE50AF50A02E010E080E1C7
:10FC10006BC085010E5F1F4F863159F1883EA1F1FF
:10FC2000843109F03FCFB694A794C501B701A6016E
:10FC3000DE0118962A013B01440C551C661C771CFA
:10FC40006BBEF201279136912D933D934F5F5F4F2D
:10FC50006F4F7F4F0197009769F7C5010197A0E0AB
:10FC6000B0E00196A11DB11DC80ED91EEA1EFB1EF3
:10FC700009C0A501B601CE0108969AD0CA0CDB1CBA
:10FC8000E11CF11C88E80FCFC701B6010F9475F392
:10FC9000A5016AE074E0CE0108967AD02FEFC21A6F
:10FCA000D20AE20AF20A80E91FC01092E803CE5895
:10FCB000DD4F1882C257D24040E0BE016E587D4FE2
:10FCC000CB010F94BEF58CE1E8EEF3E0DE0118966F
:10FCD00001900D928A95E1F70EE110E080E9E3CE04
:10FCE00002E010E080E206C09091E8039111DBCEC3
:10FCF00002E010E0B12C90EC02CE02E010E0D2CE97
:10FD0000A1E21A2EAA1BBB1BFD010DC0AA1FBB1F1F
:10FD1000EE1FFF1FA217B307E407F50720F0A21B91
:10FD2000B30BE40BF50B661F771F881F991F1A94FE
:10FD300069F760957095809590959B01AC01BD0128
:10FD4000CF01089509D0A59F900DB49F900DA49F59
:10FD5000800D911D11240895A29FB001B39FC00191
:10FD6000A39F700D811D1124911DB29F700D811DE7
:10FD70001124911D0895FB01DC0104C08D910190B7
:10FD8000801921F441505040C8F7881B990B089501
:10FD9000FB01DC0102C001900D9241505040D8F7A8
:10FDA0000895DC0101C06D9341505040E0F7089583
:10FDB000DC01CB01FC01F999FECF06C0F2BDE1BD2B
:10FDC000F89A319600B40D9241505040B8F708951A
:10FDD000DC01CB0102C02D9105D041505040D8F735
:10FDE0000895262FF999FECF1FBA92BD81BD20BD7F
:10FDF0000FB6F894FA9AF99A0FBE01960895F894FE
:02FE0000FFCF32
:10FE0200688AAB8673534B455443484553534B451D
:10FE120054434845530000000091534B49000000F1
:10FE2200803FFCFFC77FFEFFCF600600CC6006006C
:10FE3200CC7F0600CC600600CC600600CC7F0600BA
:10FE4200CC7F0600CC7F0600CC7B0600CC7FFEFF79
:10FE5200CF7FFCFFC77B000EC07F000EC07FE0FF9C
:10FE6200803F000000007677753B52572529527576
:10FE7200253B521525197615272B0000000000009E
:10FE820000005055550500000000F0FFFF07180064
:10FE9200000CCDFFFF59E4FFFF13F5FFFF57F4FFFE
:10FEA200FF17159D6357D46D5D17D56D7354940D6F
:10FEB2006F15D56D5D55D4696315F5FFFF571400B5
:10FEC2000014F5FFFF57E4FFFF13CDFFFF591800A1
:10FED200000CF0FFFF070000000050555505FCFF25
:10FEE200FF3F06000060F3FFFFCF995944980D7061
:10FEF20077BB0D5077BB4D5277BB4D5277BB4D52FE
:10FF020074B84DF2FFBF4DF218BC4D7218B84D32A5
:10FF1200FFB8FD7FF8B9FDFFF3B8FD3F109CFD3F30
:10FF220018DEFDFFFF4FFDFF3F60FD0F9C3FF9E72D
:10FF3200CD00F333610006183F00FC0F1C000001E6
:10FF4200000100010200070400000802020900008B
:10FF52000A00000C00000D00000F0000100000114C
:10FF6200000012000013000010B017113700123801
:10FF720001130017290D0030010031060632040377
:10FF8200350301361D013704043804043904043CE6
:10FF920000073D1F0A50000051EF00520000533F7E
:10FFA200016000276103006A0000901000920000C7
:10FFB2009303009501019700009800000733014860
:10FFC200455800384156524953505F32000F020AD9
:04FFD2001E98010074
:040000033000E000E9
:00000001FF
