:020000023000CC
:10E0000071C0000090C000008EC000008CC00000F5
:10E010008AC0000088C0000086C0000084C00000E4
:10E0200082C0000080C000007EC000007CC00000F4
:10E030007AC0000078C0000076C0000074C0000004
:10E0400072C0000070C000006EC000006CC0000014
:10E050006AC0000068C0000066C0000064C0000024
:10E0600062C0000060C000005EC000005CC0000034
:10E070005AC0000058C0000056C0000054C0000044
:10E0800052C0000050C000004EC000004CC0000054
:10E090004AC0000048C0000046C0000044C0000064
:10E0A00042C0000040C000003EC000003CC0000074
:10E0B0003AC0000038C0000036C0000034C0000084
:10E0C00032C0000030C000002EC000002CC0000094
:10E0D0002AC0000028C0000026C0000024C00000A4
:10E0E00022C0000011241FBECFEFD1E2DEBFCDBFA2
:10E0F00001E00CBF13E0A0E0B2E0EEE0FEEF03E0D1
:10E100000BBF02C007900D92A83DB107D9F726E0DA
:10E11000A8EDB3E001C01D92AD30B207E1F70F9456
:10E12000CEFB0D9405FF6CCF8FEF87B980E2809313
:10E130000A0180930B0189EF80930701E8E0F1E089
:10E1400089E7808381E780838FE39FE10197F1F77F
:10E1500000C0000089E780930801089588B989E527
:10E1600099E7411551056105710549F08093080152
:10E17000415051096109710990930801F2CF089546
:10E18000E8E0F1E029E1208318B899E39083208347
:10E1900088B9908389E780830895CF93DF93C62F52
:10E1A000D42FEEDF41E050E060E070E08D2FD6DF4D
:10E1B00041E050E060E070E08C2FDF91CF91CECF56
:10E1C000472FEBCF8F929F92AF92BF92EF920F9318
:10E1D000CF93DF93EB0149015A016FE371E0681BB4
:10E1E000790B81E2EDDF6FEE70E06C1B7D0B80E25E
:10E1F000E7DF40E1602F83E0D0DF82E2C1DFB501DD
:10E20000A4018E2DDF91CF910F91EF90BF90AF9031
:10E210009F908F90A3CF8F929F92AF92BF92CF92F9
:10E22000DF92EF92FF920F931F93CF93DF935C01E6
:10E230006770643051F0633081F080E6689FE001E0
:10E240001124CE5DDD4F1BE603C01BE6C0E0D0E02D
:10E2500028E1922E30E2832E07C014E1CAE0D4E018
:10E2600080E4982E90E4892EC12ED12CF12CE12C43
:10E2700008E020E030E0A901B601C501A3DF00E01D
:10E28000802F877021F4209711F0F88021968F2D30
:10E29000817042E050E060E070E081955FDFF694CD
:10E2A0000F5F081568F38FEFC81AD80A8C2D811BF1
:10E2B0008915E8F2DF91CF911F910F91FF90EF90B8
:10E2C000DF90CF90BF90AF909F908F900895EF9286
:10E2D0000F931F93CF93DF93182F8091000218178D
:10E2E00010F410920002CDE6D0E0E0910002E117B8
:10E2F000D0F4EF5FE09300028091D80387FF04C061
:10E30000CE018E1B9109FC01EE0F8E2F90E0E09064
:10E31000D90300E028E330E040E050E06AE670E036
:10E32000C39650DFE2CFDF91CF911F910F91EF9015
:10E330000895CF92DF92EF920F931F93CF93DF93C5
:10E34000182F6B018091D80381114CC02FE788E30F
:10E3500091E0215080409040E1F700C00000C2E40D
:10E36000D3E04A816981888118DF239623E0C33C8A
:10E37000D207B9F7E12C08E020E038E542E050E0B0
:10E3800060E070E080E090E01DDFC114D10409F48A
:10E39000B1C0EE24EA9426EB31E040E050E068E6BC
:10E3A00070E083E390E00EDF26EB31E040E050E0E8
:10E3B00067E870E083E390E005DF00E020E430E010
:10E3C00040E050E068E670E083E390E0FBDE20E4AC
:10E3D00030E040E050E068E670E08DE091E0F2DE91
:10E3E000106402C01032A1F18091D8038117B1F0FE
:10E3F0001093D803612F70E043E0759567954A95B7
:10E40000E1F781E191E007DF612F8EE090E003DF2B
:10E41000109200021092D9038CE619C012FD05C0BB
:10E42000812F827121F08FED03C080EE01C087EC57
:10E43000909100029C3640F0109200029091D90316
:10E44000911180E08093D903809100028C5F3FDFBF
:10E4500016FF0DC040E06EE172E0C601A5D388232F
:10E46000A9F080E076D263E080E890E0D4DEC114C9
:10E47000D10409F03FC0E12C08E028E33FE440E08C
:10E4800050E068E670E083E390E09CDEE12C08E079
:10E4900022E03EE940E050E064E170E080E890E096
:10E4A00091DECD2839F1EE24EA9420E830E040E016
:10E4B00050E064E170E080E890E084DE20E830E045
:10E4C00040E050E063E570E080E890E07BDE00E053
:10E4D00020E830E040E050E064E170E080E890E067
:10E4E00071DE20E830E040E050E064E170E08FEB66
:10E4F00090E068DEDF91CF911F910F91EF90DF9058
:10E50000CF900895CF92DF92EF92FF920F9369011F
:10E510007A010093D903ACE6B0E09B01AC010F9403
:10E52000AFFE2CE6C20ED11CE11CF11CA701960126
:10E530000F948DFE822F0F91FF90EF90DF90CF9080
:10E54000C6CE8FEF8EBD0DB407FEFDCF8EB50895FC
:10E550001F93CF93DF9300D000D0CDB7DEB7806498
:10E560008E834A835B836C837D832983FE01379688
:10E57000CE01019622912EBD0DB407FEFDCFE81706
:10E58000F907C1F710E0DDDF87FF02C01150D9F7AE
:10E5900026960FB6F894DEBF0FBECDBFDF91CF91A8
:10E5A0001F910895CF93C82FCCDF8C13FDCF81E04E
:10E5B000CF910895CF92DF92EF92FF92CF936B01AC
:10E5C0007C0110920904609301027093020280930F
:10E5D0000302909304028091EC03882309F450C055
:10E5E000CEEFC114D104E104F10409F449C0B7012C
:10E5F000A60100900A0604C0440F551F661F771F2E
:10E600000A94D2F72FEF88E1A3DF811137C0CEBD86
:10E610000DB407FEFDCFEAE0F4E081918EBD0DB4AC
:10E6200007FEFDCF86E0EA30F807B9F78ADF89DF19
:10E6300088DF8F71853011F58FEFB4DF8823F1F01B
:10E640002FEF40E050E0BA018DE082DF811116C06B
:10E6500078DF811113C080910804882389F010921B
:10E6600008048091F0039091F103A091F203B0911E
:10E67000F303C80ED91EEA1EFB1EB3CF1092EC03A3
:10E68000CF91FF90EF90DF90CF90089560910102BD
:10E69000709102028091030290910402611571054C
:10E6A0008105910509F086CF08950F931F93CF93AD
:10E6B000DF9300D01F92CDB7DEB700910102109119
:10E6C000020220910302309104020617170728075F
:10E6D0003907B9F020910904222349F069837A832C
:10E6E0008B839C83D3DF9C818B817A81698160934A
:10E6F000010270930202809303029093040281E06E
:10E7000001C080E00F900F900F900F90DF91CF919C
:10E710001F910F910895CF92DF92EF92FF926B01BC
:10E720007C01C3DF882321F1B701A60100900A060E
:10E7300004C0440F551F661F771F0A94D2F72FEFAE
:10E7400081E106DF811112C08EEF2CDF882371F08A
:10E75000EAE0F4E09FEF9EBD0DB407FEFDCF86E03A
:10E76000EA30F80729F08EB58193F5CF1092EC03CB
:10E77000FF90EF90DF90CF9008956091DE0370914D
:10E78000DF038091E0039091E103C5DF8091E20314
:10E7900020E2829FC0011124865F9B4F08950F9352
:10E7A0001F930091F4031091F5032091F60330912B
:10E7B000F703061717072807390710F41092EC0320
:10E7C0002091EE03295F04C096958795779567950C
:10E7D0002A95D2F7009104041091050420910604B3
:10E7E00030910704600F711F821F931F94DF809187
:10E7F000ED03809308041F910F910895CF92DF924B
:10E80000EF92FF92CF93DF936B017C01EA0180913D
:10E81000EC038823E9F18091EE03882329F088EF47
:10E820009FEFA0E0B0E004C088EF9FEFAFEFBFE044
:10E83000C816D906EA06FB0658F5C701B601AFDFD0
:10E840008091EE03882369F0DD24EE24FF24F60195
:10E85000EE0FFF1FE65FFB4F80819181A0E0B0E0EB
:10E8600011C0E894C7F8DD24EE24FF24F601EE0F72
:10E87000FF1FEE0FFF1FE65FFB4F80819181A2819A
:10E88000B381BF7088839983AA83BB8381E001C071
:10E8900080E0DF91CF91FF90EF90DF90CF900895CF
:10E8A000CF92DF92EF92FF92CF93DF9300D01F922F
:10E8B000CDB7DEB76B017C0182E0C816D104E1045C
:10E8C000F10468F1C701B60129833A834B835C8365
:10E8D00066DF8091EE0329813A814B815C81882338
:10E8E00059F0DD24EE24FF24F601EE0FFF1FE65F52
:10E8F000FB4F3183208310C0E894C7F8DD24EE2459
:10E90000FF24F601EE0FFF1FEE0FFF1FE65FFB4F28
:10E91000208331834283538381E0809309040F90E5
:10E920000F900F900F90DF91CF91FF90EF90DF90BD
:10E93000CF90089522DF4091DA035091DB0360917C
:10E94000DC037091DD03FC01448F558F668F778F58
:10E950009DCE7F928F929F92AF92BF92CF92DF9285
:10E96000EF92FF920F931F93CF93DF9300D01F92EC
:10E97000CDB7DEB7782E4091E3035091E403609168
:10E98000E5037091E6038A0111708090EF03912CEA
:10E9900081E0881A9108AA2497FCA094BA2CDB0184
:10E9A000CA01F9E0B695A79597958795FA95D1F79D
:10E9B00088229922AA22BB228091EB03882349F066
:10E9C0006091F8037091F9038091FA039091FB0331
:10E9D0009BC00115110509F07AC081149104A104AE
:10E9E000B10409F074C03091E7032091E8038091ED
:10E9F000E9039091EA03772009F460C0C32ED22E78
:10EA00007C01EFEFCE1ADE0AEE0AFE0A8091E703E0
:10EA10009091E803A091E903B091EA03C816D906E2
:10EA2000EA06FB0619F41092EC0377C08091F40318
:10EA30009091F503A091F603B091F7038C159D0515
:10EA4000AE05BF0528F4E2E0CE2ED12CE12CF12C4E
:10EA5000AE014F5F5F4FC701B601D0DE89819A8159
:10EA6000AB81BC81892B8A2B8B2B59F62FEF3FEF83
:10EA70004FEF5FE0C701B60113DF6091E7037091CC
:10EA8000E8038091E9039091EA036115710581051E
:10EA9000910541F472DEFC01D38EC28EF58AE48AC0
:10EAA000F5DD03C0A7019601FBDEC092E703D0921B
:10EAB000E803E092E903F092EA0309C0452B462BF4
:10EAC000472B29F047EE53E0632F722F97DEA0917A
:10EAD000EF032091E7033091E8034091E90350915F
:10EAE000EA032250310941095109B0E00F94AFFE09
:10EAF000C0900004D0900104E0900204F090030460
:10EB00006C0D7D1D8E1D9F1D680D791D8A1D9B1D21
:10EB1000772011F0CADD01C0FEDDC801865F9B4F82
:10EB20000F900F900F900F90DF91CF911F910F9149
:10EB3000FF90EF90DF90CF90BF90AF909F908F901D
:10EB40007F9008950F931F938C0180E002DF20E0F7
:10EB500030E04091E3035091E4036091E50370914C
:10EB6000E603400F511F621F731F4093E30350934E
:10EB7000E4036093E5037093E6034091DA03509158
:10EB8000DB036091DC037091DD03401B510B620BD2
:10EB9000730B4093DA035093DB036093DC037093B1
:10EBA000DD031F910F9108954F925F926F927F92B4
:10EBB0008F929F92AF92BF92CF92DF92EF92FF928D
:10EBC0000F931F93CF93DF93CDB7DEB760970FB648
:10EBD000F894DEBF0FBECDBF142F28E0FC01DE018C
:10EBE000119601900D922A95E1F7FB0180819181A8
:10EBF000A28189879A87AB878091EC0381117BC1C1
:10EC000084B1807F876084B985B1807F816085B958
:10EC1000249A2C9A83E58CBD8DB58C7F8DBD0AE03E
:10EC200090DC0150E9F72C98A12CB12C25E940E0AB
:10EC300050E0BA0180E08CDC813049F0FFEFAF1A80
:10EC4000BF0A21E8A216B10489F780E08CC227E848
:10EC50004AEA51E060E070E088E07ADC82FF07C0B9
:10EC600089E080930A06C12CD12C76010DC069DCA5
:10EC700068DC67DC66DC8A3A41F710920A06C12C30
:10EC8000D12CE12C30E4F32E2FEF40E050E0BA011C
:10EC900087E35EDC2FEFB701A60189E259DC882308
:10ECA00031F0C5010196A7FCD0CF5C01EDCF80917A
:10ECB0000A06811112C02FEF40E050E0BA018AE34A
:10ECC00047DC8111C2CF3DDC807C803C19F089E0BB
:10ECD00080930A0636DC35DC34DC8DB58E7F8DBD45
:10ECE0008CB58C7F8CBD8CB58CBD01E060E070E094
:10ECF000CB0111DD002311F180E1089FF001112407
:10ED0000E854FA4F80818F7709F0F1C084859585AA
:10ED1000A685B78584369105A105B10508F4E7C03D
:10ED2000C084D184E284F384C114D104E104F104E9
:10ED300009F4DDC0C701B601EEDC03C0C12CD12C43
:10ED4000760180911504909116048115924009F086
:10ED5000CEC0A0911A04AA2309F4C9C08091180456
:10ED600090911904009709F4C2C0E0911704EE23B2
:10ED700009F4BDC021E0A23008F420E02093ED03A7
:10ED8000E093EF03209120043091210421153105F7
:10ED900019F040E050E008C020912E0430912F047B
:10EDA00040913004509131042093F0033093F103EB
:10EDB0004093F2035093F30346015701880E991EC6
:10EDC000A11CB11C8092040490920504A092060438
:10EDD000B0920704B0E0C3D7680D791D8A1D9B1D52
:10EDE0006093F8037093F9038093FA039093FB0305
:10EDF00080901D0490901E048114910419F0A12CA0
:10EE0000B12C08C080902A0490902B04A0902C0470
:10EE1000B0902D0420911B0430911C04B5E0220F0A
:10EE2000331FBA95E1F72901612C712C4092FC0344
:10EE30005092FD036092FE037092FF03FFEF4F0EAE
:10EE4000F1E05F1E611C711C29E076946794579471
:10EE500047942A95D1F7460E571E681E791E409298
:10EE60000004509201046092020470920304C701EE
:10EE7000B6016419750986099709680D791D8A1DFF
:10EE80009B1D2E2F30E040E050E047D72F5F3F4FD3
:10EE90004F4F5F4F2093F4033093F5034093F603F5
:10EEA0005093F703263F8FE0380741055105F8F0EE
:10EEB00081E0263F3F4F4105510508F080E08093F7
:10EEC000EE03811110C08091360490913704A09117
:10EED0003804B09139048093F8039093F903A09318
:10EEE000FA03B093FB0381E08093EC0304C001506C
:10EEF00008F0FCCEAACE8AE0E1E0F0E0EC0FFD1FC6
:10EF0000E80FF11D90819052903608F09ECE81500E
:10EF100098F71092E3031092E4031092E503109225
:10EF2000E6038091EE038093EB038091F8039091C8
:10EF3000F903A091FA03B091FB038093E703909348
:10EF4000E803A093E903B093EA0320E00FE00F5F2A
:10EF50000F7080E290E0288BF5DD5C014BE050E023
:10EF6000BC01CE01019614D72889892B29F4F5011B
:10EF70008385887131E009F030E0F501408131117D
:10EF800006C0442311F0453EB9F4211112C080910E
:10EF9000010290910202A0910302B09104028093B9
:10EFA000DE039093DF03A093E003B093E1030093AB
:10EFB000E20321E0442339F08091EC03882319F027
:10EFC000332329F266C0311164C010FF3ECE2223E4
:10EFD00001F1D3DB5C0180E2F50111928A95E9F73A
:10EFE0008BE0FE013196D50101900D928A95E1F7F3
:10EFF00081E298E2F501918B808B938B828B918FCC
:10F00000808F80E098E097878687978B868B3EDBA2
:10F0100042C08091EE03811118CE1092E30310924A
:10F02000E4031092E5031092E60381E092DC809104
:10F03000010290910202A0910302B0910402809318
:10F04000DE039093DF03A093E003B093E1031092FB
:10F05000E203EAE0F4E0119226E0EA30F207D9F7A1
:10F060000091EF0313DB8091010290910202A091C5
:10F070000302B09104020196A11DB11D809301020B
:10F0800090930202A0930302B0930402015051F73F
:10F09000A0CF112321F0F501838580FDD6CDF501A8
:10F0A000C488D588E12CF12C7601DD24CC24828D16
:10F0B000938DA0E0B0E0C82AD92AEA2AFB2AC092A0
:10F0C000E703D092E803E092E903F092EA03848D2B
:10F0D000958DA68DB78D8093DA039093DB03A09373
:10F0E000DC03B093DD031092EB031092E303109264
:10F0F000E4031092E5031092E603892B8A2B8B2BF5
:10F1000081F111FF2EC0AE01445F5F4FC701B60110
:10F1100075DB882359F020E030E0A901C701B60172
:10F12000BFDBCC84DD84EE84FF84EDCF1092E70357
:10F130001092E8031092E9031092EA031092DA03A6
:10F140001092DB031092DC031092DD0316DBFC014E
:10F15000148E158E168E178E138E128E158A148AA3
:10F1600095DA8091EC0360960FB6F894DEBF0FBE7F
:10F17000CDBFDF91CF911F910F91FF90EF90DF9066
:10F18000CF90BF90AF909F908F907F906F905F9047
:10F190004F90089581E090E0D5DCFC0180810895D6
:10F1A000CF93C82F81E0D5DBFC01C08381E0809341
:10F1B00009048091DA039091DB03A091DC03B09104
:10F1C000DD030196A11DB11D8093DA039093DB034B
:10F1D000A093DC03B093DD038093E3039093E403F7
:10F1E000A093E503B093E603CF9108950F931F9387
:10F1F000CF93DF93EC0100E010E04091DA035091EF
:10F20000DB036091DC037091DD03452B462B472B1C
:10F21000E9F0C0DF002399F08033C0F0212F217086
:10F2200010FF188298819295907F86FD87508F708D
:10F23000890F88831F5F222339F0219605C001E0E2
:10F240008A33D9F200E0D9CF01E0D7CF812FDF9107
:10F25000CF911F910F910895EF92FF920F931F93FB
:10F26000CF93DF93EC01688339832A830B8354E0C7
:10F27000F52EF60EFF0C8AE393DF00E010E0FF208E
:10F2800029F0E8800E0D111D219602C0E02EE194B8
:10F290008E2D82958F70E29440EFE4228A3008F040
:10F2A000895F805D7DDFFA94F0FCF2CF8EEFF8127B
:10F2B000E6CF8DE075DF8AE0DF91CF911F910F914E
:10F2C000FF90EF906DCFFF920F931F93CF93DF933B
:10F2D000611520EC720723E08207910508F033C026
:10F2E000611131C023E0FB0180935B002093570044
:10F2F000E89507B600FCFDCFDA01B3958B019C01C0
:10F30000FF24F394FA01C191D191AF010E01F801EC
:10F3100020935B00F0925700E89511240E5F1F4F79
:10F320002F4F3F4F4A175B0769F725E0FB0180939A
:10F330005B0020935700E89507B600FCFDCF81E104
:10F3400080935700E895DF91CF911F910F91FF9027
:10F350000895FC01208D27FF07C02F77208F49E1FA
:10F3600050E067EE7FE03AC508952F923F924F92AA
:10F370005F926F927F928F929F92AF92BF92CF9245
:10F38000DF92EF92FF920F931F93CF93DF93CDB74E
:10F39000DEB7C650D4400FB6F894DEBF0FBECDBF67
:10F3A0005C01DC0158961C915897812F8C7F8068F6
:10F3B00058968C9380E090E0F501E80FF91F2485C2
:10F3C000348134872483019688309105A9F775012B
:10F3D000BCE0EB0EF11CB7018AE40F9499F111FD2A
:10F3E00007C040E063EC73E0C701DEDB811127C09A
:10F3F000412C512C32018FEF9FEF9A838983AE010C
:10F400004F5F5F4FC301B2015EDFCA5FDB4F0FB6D4
:10F41000F894DEBF0FBECDBFDF91CF911F910F914A
:10F42000FF90EF90DF90CF90BF90AF909F908F9024
:10F430007F906F905F904F903F902F90089580E065
:10F4400088DA4C01FC010C9621912053273120F4DD
:10F45000E817F907C9F702C0812C912C2091DA0333
:10F460003091DB034091DC035091DD03CF5FDB4F34
:10F47000288339834A835B83C150D440E12CF12C2B
:10F48000412C512C32016E013FEFC31A3DEFD30ADC
:10F49000A6014C5F5F4FCB5FDB4F59834883C5505C
:10F4A000D4406091E3037091E4038091E50390916F
:10F4B000E603CF5FDB4F288139814A815B81C150F0
:10F4C000D440621773078407950708F094CF0EE9BC
:10F4D000CF5FDB4F288139814A815B81C150D440A5
:10F4E00011D881149104C9F480E091E02BDBAC01C8
:10F4F000C301B201E8DE5FEF551A650A750ACF5FF6
:10F50000DB4F88819981AA81BB81C150D440F5012C
:10F51000848B958BA68BB78BC4CFC60167DED601D3
:10F520002C9013961C91312CF601E20DF31D648191
:10F5300070E0F60180E090E0A1014D5F5F4F9F0118
:10F540002C193D094217530724F02191820F911D78
:10F55000F6CF91958195910999276817790709F058
:10F560004ACFE114F104B9F4111115C0D301C2015D
:10F5700088279927BB27F6014180512C612C712CDB
:10F58000762C652C542C44242281422A482A592A5C
:10F590006A2A7B2A16C01230A1F466247724D60189
:10F5A00014968C9190E0A0E0B0E02CE0880F991FB9
:10F5B000AA1FBB1F2A95D1F7482A592A6A2A7B2AF3
:10F5C00070CFA101CB5FDB4F68817981C550D440FA
:10F5D00081E090E08C0F9D1F8E0D9F1DE6D3E20C05
:10F5E000F31CBFEFEB16F10409F018F4113009F029
:10F5F00058CFAE014F5F5F4FC301B20164DEEFEF42
:10F60000EE16F10439F030F0FFEF5F1A6F0A7F0A4F
:10F61000FA9406C04E0C5F1C611C711CE12CF12C8D
:10F62000A701BE016F5F7E4FCE010196BED3D5010B
:10F6300054964D925D926D927C925797113009F0DD
:10F6400030CFD9CE4F925F926F927F929F92AF92BE
:10F65000BF92CF92DF92EF92FF920F931F93CF93BF
:10F66000DF93CDB7DEB764970FB6F894DEBF0FBE59
:10F67000CDBF5C01FC01808D82FF7AC08B7F8068EA
:10F68000808F7501FCE0EF0EF11CB70181E50F944E
:10F6900099F142E063EC73E0C70186DA882309F44C
:10F6A00065C010E0412C512C3201C12CD12C7601C7
:10F6B000F50124893589468957890CEDC701B601C2
:10F6C0000F9482F2EBBEF60187919691E5E0F0E0AF
:10F6D000EC0FFD1FE10FF11D918380831E5FF2E0AF
:10F6E000CF0ED11CE11CF11C99249394F50184895F
:10F6F0009589A689B789C816D906EA06FB0618F4C3
:10F70000912C1031A9F600E0A3019201612FCE01E6
:10F710000196A2DD410E511C611C711CD301C20176
:10F72000AA27BB27892B8A2B8B2B99F4D301C201E3
:10F730004CE0B695A795979587954A95D1F78D8317
:10F740001E8202E020E030E0A90162E0CE010196D5
:10F7500083DD911002C010E0ABCF01E020E030E08B
:10F76000A90160E0CE01019677DDE4D8C501F1DDA5
:10F7700064960FB6F894DEBF0FBECDBFDF91CF9178
:10F780001F910F91FF90EF90DF90CF90BF90AF90BF
:10F790009F907F906F905F904F900895CF93DF93ED
:10F7A000CDB7DEB7C657D2400FB6F894DEBF0FBE56
:10F7B000CDBF94B7F894A89514BE8091600088617D
:10F7C0008093600010926000789493FF05C0E091F0
:10F7D0000B06F0910C06199557985F9A8091C0001E
:10F7E00082608093C00080E18093C40088E18093B0
:10F7F000C10049E150E067EE7FE0CE01875A9D4F9E
:10F80000DDD2E9E5F2E0EC0FFD1F3C9689E592E0E0
:10F810008C0F9D1F4496219120522F3558F089E17D
:10F82000E5E0F2E0DE01A75ABD4F01900D928A9506
:10F83000E1F703C0E817F90771F70F9494F000E0BF
:10F8400010E099E5892E92E0992E8C0E9D1E2CE0F9
:10F85000820E911C4F991BC088E0E9E0F2E0A9E517
:10F86000B2E0AC0FBD1F149601900D928A95E1F79E
:10F87000CF58DD4F8881C157D2408168CF58DD4FC6
:10F880008883C157D240CE01875A9D4F62DDCF5841
:10F89000DD4F8881C157D24080FF09C0CE01875A11
:10F8A0009D4FD0DECE01875A9D4F5FDD66C0C12CD3
:10F8B000D12C760160E020E030E040E080E090E094
:10F8C000DC015091C00057FD79C00196A11DB11D0A
:10F8D000A4FFF7CF52C0443008F479C0453009F492
:10F8E00088C008F497C0463049F76111B3CF8E81C4
:10F8F000873108F0B0C0833108F015C1863009F4B3
:10F900000DC108F48CC0813109F09EC002E010E006
:10F9100080E2BB24B39490E02BE129832EE02D8379
:10F920009F83B4010F9499F11C830B838C818B838B
:10F930000C83A6E0B0E0AC0FBD1FA00FB11F1C925E
:10F94000FE01319680818093C6008C919191892728
:10F950008C938091C00086FFFCCF8091C0008064B2
:10F960008093C000015011090A3F3FEF130751F780
:10F9700000E010E0BB2009F49DCFCE01875A9D4FD7
:10F98000E8DC40E050E0BA016BBFFA018791969144
:10F99000019629F4B4018CE00F9499F15BCF60E0FB
:10F9A00070E084E20F9499F18091C0008D7F809384
:10F9B000C0002C9AEE27FF270994FFCF5091C60074
:10F9C0006527433009F087CF052B44E077CF4130DE
:10F9D00019F45A8342E072CF423028F441E05B319F
:10F9E00009F06BCF6BCF052F10E0102F002743E0FD
:10F9F00065CFC9010196E6E0F0E0EC0FFD1FE20FD4
:10FA0000F31F50838017910711F09C0157CF980185
:10FA100046E054CF5E3009F01DCF45E04FCF823035
:10FA200009F478C1833009F44DC0813009F065C113
:10FA30008AE0E7ECF3E0DE01189601900D928A95DA
:10FA4000E1F70CE010E03BC0823108F056C1803194
:10FA500009F460C152C18D31A1F050F48A3109F42A
:10FA60004EC08B3109F43CC0883109F046C13FC01B
:10FA7000863E09F427C108F440C18A3E08F453C009
:10FA80003CC18A85803331F4EC85F0E0EC52FC4FC8
:10FA9000E0810FC0982F907559F0883511F4E3E09C
:10FAA00001C0E0E0F0E099E090935700E49101C0DC
:10FAB000E0E0188689871A86EB8707E010E080E28D
:10FAC000B12C29CFEF81E059E33028F4F0E0EF5278
:10FAD000FC4F808101C080E0888703E010E0EFCF19
:10FAE000EA85F0E0EC52FC4F8081888713C088855E
:10FAF000803539F48985883031F4E2E005C0E1E0F1
:10FB000003C0E3E001C0E0E0F0E089E0809357004B
:10FB1000E491E887198604E010E0D1CFCA84D98443
:10FB2000E884FF80F7C0A884BF8080FF7FC0853154
:10FB300009F45BC018F4833161F0ECC0873E09F42E
:10FB400061C0893E09F0E6C08091ED03809308040E
:10FB500059C0CC0CDD1CEE1CFF1CAE01405F5F4F9A
:10FB6000C701B601B0DBE0E1F0E0EC0FFD1FEA0DEC
:10FB7000FB1DCF58DD4F2881C157D24027FD02C061
:10FB8000C50111C0C359DD4F88819981AA81BB810C
:10FB9000CD56D240C816D906EA06FB0688F71CC027
:10FBA0000297009729F0529142914F3F5F4FC1F366
:10FBB000B701A601480F591F611D711DC359DD4FC3
:10FBC000488359836A837B83CD56D2402468CF58BB
:10FBD000DD4F2883C157D240CA0CDB1CE11CF11C4D
:10FBE000F694E794D794C79409C0A501B601CE0155
:10FBF0004096F4D0CA0CDB1CE11CF11C02E010E0C2
:10FC000088E05ECFA501BE01605F7F4F8AE094E08F
:10FC1000CCD0C701B6010F94DAF25FEFC51AD50A4E
:10FC2000E50AF50A02E010E080E16BC085010E5F95
:10FC30001F4F863159F1883EA1F1843109F03FCF41
:10FC4000B694A794C501B701A601DE0118962A0152
:10FC50003B01440C551C661C771C6BBEF2012791BE
:10FC600036912D933D934F5F5F4F6F4F7F4F0197BD
:10FC7000009769F7C5010197A0E0B0E00196A11DCA
:10FC8000B11DC80ED91EEA1EFB1E09C0A501B60192
:10FC9000CE01089693D0CA0CDB1CE11CF11C88E84D
:10FCA0000FCFC701B6010F948BF3A5016AE074E092
:10FCB000CE0108967AD02FEFC21AD20AE20AF20ACF
:10FCC00080E91FC01092EC03CE58DD4F1882C25756
:10FCD000D24040E0BE016E587D4FCB010F94D4F569
:10FCE0008CE1ECEEF3E0DE01189601900D928A951E
:10FCF000E1F70EE110E080E9E3CE02E010E080E2FF
:10FD000006C09091EC039111DBCE02E010E0B12C23
:10FD100090EC02CE02E010E0D2CEA1E21A2EAA1B95
:10FD2000BB1BFD010DC0AA1FBB1FEE1FFF1FA217AB
:10FD3000B307E407F50720F0A21BB30BE40BF50BA8
:10FD4000661F771F881F991F1A9469F76095709531
:10FD5000809590959B01AC01BD01CF01089509D01C
:10FD6000A59F900DB49F900DA49F800D911D11240F
:10FD70000895A29FB001B39FC001A39F700D811D84
:10FD80001124911DB29F700D811D1124911D0895A4
:10FD9000FB01DC0104C08D910190801921F44150D8
:10FDA0005040C8F7881B990B0895FB01DC0102C085
:10FDB00001900D9241505040D8F70895DC01CB01DD
:10FDC000FC01F999FECF06C0F2BDE1BDF89A31966B
:10FDD00000B40D9241505040B8F70895DC01CB01BA
:10FDE00002C02D9105D041505040D8F70895262FDC
:10FDF000F999FECF1FBA92BD81BD20BD0FB6F89410
:0EFE0000FA9AF99A0FBE01960895F894FFCF72
:10FE0E0068FFFFFFFF8AAB8673534B45544348454B
:10FE1E0053534B4554434845530000000091534BF8
:10FE2E0049000000803FFCFFC77FFEFFCF60060049
:10FE3E00CC600600CC7F0600CC600600CC600600CD
:10FE4E00CC7F0600CC7F0600CC7F0600CC7B060064
:10FE5E00CC7FFEFFCF7FFCFFC77B000EC07F000E66
:10FE6E00C07FE0FF803F000000007677753B525761
:10FE7E0025295275253B521525197615272B00007D
:10FE8E000000000000005055550500000000F0FF76
:10FE9E00FF071800000CCDFFFF59E4FFFF13F5FF1D
:10FEAE00FF57F4FFFF17159D6357D46D5D17D56D82
:10FEBE007354940D6F15D56D5D55D4696315F5FFAB
:10FECE00FF5714000014F5FFFF57E4FFFF13CDFF9B
:10FEDE00FF591800000CF0FFFF07000000005055FE
:10FEEE005505FCFFFF3F06000060F3FFFFCF995959
:10FEFE0044980D7077BB0D5077BB4D5277BB4D526A
:10FF0E0077BB4D5274B84DF2FFBF4DF218BC4D7217
:10FF1E0018B84D32FFB8FD7FF8B9FDFFF3B8FD3FBD
:10FF2E00109CFD3F18DEFDFFFF4FFDFF3F60FD0FF4
:10FF3E009C3FF9E7CD00F333610006183F00FC0F3C
:10FF4E001C0000010001000102000704000008026D
:10FF5E00020900000A00000C00000D00000F000056
:10FF6E0010000011000012000013000010B0171155
:10FF7E003700123801130017290D00300100310629
:10FF8E0006320403350301361D0137040438040418
:10FF9E003904043C00073D1F0A50000051EF005287
:10FFAE000000533F016000276103006A00009010BB
:10FFBE000092000093030095010197000098000045
:10FFCE0007330148455800384156524953505F3265
:08FFDE00000F020A1E98010049
:040000033000E000E9
:00000001FF
